:100000000EC028C027C026C025C07BC023C022C088
:1000100021C020C01FC01EC01DC01CC01BC0112499
:100020001FBECFE5D2E0DEBFCDBF11E0A0E6B0E05D
:10003000ECEBF5E002C005900D92A832B107D9F7BC
:1000400021E0A8E2B1E001C01D92A133B207E1F7BF
:10005000A2D0B2C2D5CF3FB7F89480912D01909134
:100060002E01A0912F01B091300122B708B601FEF8
:1000700005C02F3F19F00196A11DB11D3FBFBA2F3A
:10008000A92F982F8827BC01CD01620F711D811DFA
:10009000911D42E0660F771F881F991F4A95D1F77F
:1000A00008958F929F92AF92BF92CF92DF92EF927C
:1000B000FF924B015C01CFDF6B017C01CCDF6C193F
:1000C0007D098E099F09683E734081059105B0F353
:1000D00021E0821A9108A108B10888EEC80E83E0D9
:1000E000D81EE11CF11C81149104A104B10431F764
:1000F000FF90EF90DF90CF90BF90AF909F908F9048
:1001000008951F920F920FB60F9211242F933F93D1
:100110008F939F93AF93BF938091290190912A0170
:10012000A0912B01B0912C013091280123E0230FE5
:100130002D3758F50196A11DB11D209328018093FC
:10014000290190932A01A0932B01B0932C01809157
:100150002D0190912E01A0912F01B09130010196B7
:10016000A11DB11D80932D0190932E01A0932F010D
:10017000B0933001BF91AF919F918F913F912F919B
:100180000F900FBE0F901F90189526E8230F029630
:10019000A11DB11DD2CF78948AB582608ABD8AB57F
:1001A00081608ABD83B7826083BF83B7816083BF6C
:1001B00089B7826089BF80B7826080BF80B7816065
:1001C00080BF329A319A309A379A87B3876087BB5B
:1001D00037E0632E48E0E42EF12C01E012E053E01A
:1001E000C52ED12C60E0A62E60E0B62E94E0792ECC
:1001F00025E0522E88E1882E81E0982EF401C191ED
:100200004F01CC2309F44DC08FEB8C0F8A3158F588
:100210000C2E000CDD0BC154D10968EE73E080E0B8
:1002200090E03FDFCE0165E070E08ED1FC01EC593B
:10023000FF4F9191992359F19033F1F468BA2FEF60
:1002400085EA9EE0215080409040E1F700C0000028
:1002500018BA2FEF83EC99E0215080409040E1F7ED
:1002600000C00000E6CF80ED8C0F8A3038F60C2EEF
:10027000000CDD0B6697D1CF913351F768BA2FEFA1
:1002800081EF9BE2215080409040E1F7DFCFEFEF1C
:10029000F3ED20E3E150F0402040E1F700C0000022
:1002A000ADCF8FEF9BE7E2E981509040E040E1F76E
:1002B00000C00000C4E0D0E0912C98BA64EF71E077
:1002C00080E090E0EEDE9394F8E09F12F6CF219765
:1002D00099F718BAC8ECD0E0D1D0B70146D188BBA5
:1002E00062E370E080E090E0DCDE2197A9F7C4E1F2
:1002F000D0E008BB6BE470E080E090E0D2DE18BB99
:100300006BE470E080E090E0CCDE78BA6FEA70E0F9
:1003100080E090E0C6DE18BA65E270E080E090E030
:10032000C0DE78BA6BE470E080E090E0BADE18BB23
:100330006BE470E080E090E0B4DE08BB6FEA70E050
:1003400080E090E0AEDE18BA65E270E080E090E018
:10035000A8DE219771F6C8E2D0E090D0B60105D1B1
:10036000892B09F43DC08AD0B601FFD00197D1F1A5
:1003700084E088BB64E170E080E090E092DE18BA2F
:1003800068EC70E080E090E08CDE219731F7C0E50A
:10039000D0E074D0B701E9D088BB64E170E080E0C0
:1003A00090E07FDE18BA66E470E080E090E079DEED
:1003B000219779F7C4E6D0E064E670E080E090E051
:1003C00070DE58BA64E670E080E090E06ADE18BB48
:1003D000219791F7A114B10409F40CCF11DE06CFD7
:1003E00081E0C7CF82E0C5CF8F929F92AF92BF923C
:1003F000CF92DF92EF92FF92CF93DF93EC0168816F
:1004000079818A819B81611571058105910521F4AE
:1004100064E279ED8BE597E02DE133EF41E050E0C8
:1004200055D049015A0127EA31E440E050E035D087
:100430006B017C012CEE34EF4FEF5FEFC501B4018F
:100440002CD0DC01CB018C0D9D1DAE1DBF1DB7FF57
:1004500003C00197A109B04888839983AA83BB830D
:100460009F77DF91CF91FF90EF90DF90CF90BF907B
:10047000AF909F908F900895B7DF089580E690E049
:10048000B3DF0895B0E0A0E0809360009093610036
:10049000A0936200B09363000895EE27FF27AA2778
:1004A000BB2708C0A20FB31FE41FF51F220F331F85
:1004B000441F551F969587957795679598F37040DB
:1004C000A9F7009799F7BD01CF010895052E97FB75
:1004D00016F400940FD057FD05D014D007FC02D0BD
:1004E00046F408C050954095309521953F4F4F4FA9
:1004F0005F4F089590958095709561957F4F8F4FD0
:100500009F4F0895A1E21A2EAA1BBB1BFD010DC02F
:10051000AA1FBB1FEE1FFF1FA217B307E407F507B3
:1005200020F0A21BB30BE40BF50B661F771F881F8F
:10053000991F1A9469F760957095809590959B0125
:10054000AC01BD01CF0108950024552704C0080E59
:10055000591F880F991F009729F076956795B8F372
:100560007105B9F7802D952F089597FB072E16F486
:10057000009406D077FD08D00BD007FC05D03EF4E0
:10058000909581959F4F0895709561957F4F08953F
:10059000AA1BBB1B51E107C0AA1FBB1FA617B707A9
:1005A00010F0A61BB70B881F991F5A95A9F78095C5
:0C05B0009095BC01CD010895F894FFCF98
:1005BC0001000000303100000031303030003130AB
:1005CC00313000313030300030000000003030313C
:1005DC0030003131303000303030300030300000FD
:1005EC0000303131310031303130003031303000B9
:1005FC003131000000313000000031313100003069
:10060C003131300031313031003031300000303098
:10061C00300000310000000030303100003030304C
:10062C003100303131000031303031003130313176
:10063C00003131303000303030300031303030006B
:10064C00303030310030313000003131303000305A
:10065C0031313000000000000000000000000000FC
:10066C000000000000000000534543524554204D4B
:08067C004553534147450000BE
:00000001FF
